:020000040000FA
:020000001628C0
:08000800A300030EA400830114
:100010000B190B2811280B11A50AA60A3D308100E7
:100020001128240E8300A30E230E0900A501A601AA
:100030008316F030850006108610031789018801A9
:10004000031307308104D730810583123D308100CE
:100050000B118B168B1753205F3084008313061807
:100060002F280108A900A801861837283928271049
:100070003B2827143B283E2050202F280330A90579
:100080000030290203190134013029020319023416
:1000900002302902031904340330290203190834F9
:1000A0008000840A0800031383120F308500722039
:1000B000A00185010030200203190514013020023F
:1000C000031985140230200203190515033020029C
:1000D000031985157E20A00A04302002031D59282B
:1000E000850108007E207E207E207E207E20080064
:1000F000F830A1000000A10B7A280800C830A20047
:080100007820A20B8028080002
:02400E00F42F8D
:02401000FF3F70
:00000001FF
