:020000040000FA
:020000001628C0
:08000800A300030EA400830114
:100010000B190B2811280B11A50AA60A3D308100E7
:100020001128240E8300A30E230E0900A501A601AA
:100030008316F030850006108610031789018801A9
:10004000031307308104D730810583123D308100CE
:100050000B118B168B174C2006182C280108A900B1
:10006000A80186183428362827103828271438285D
:100070003A202C280330A905003029020319013445
:100080000130290203190234023029020319043411
:100090000330290203190834031383120F3085003B
:1000A0006B20A001850100302002031905140130E6
:1000B00020020319851402302002031905150330AC
:1000C0002002031985157720A00A04302002031DA1
:1000D0005228850108007720772077207720772025
:1000E0000800F830A1000000A10B73280800C830F8
:0A00F000A2007120A20B792808007D
:02400E00F42F8D
:02401000FF3F70
:00000001FF
